{"abi":[{"type":"function","name":"DEFAULT_ADMIN_ROLE","inputs":[],"outputs":[{"name":"","type":"bytes32","internalType":"bytes32"}],"stateMutability":"view"},{"type":"function","name":"OPERATOR_ROLE","inputs":[],"outputs":[{"name":"","type":"bytes32","internalType":"bytes32"}],"stateMutability":"view"},{"type":"function","name":"acceptDefaultAdminTransfer","inputs":[],"outputs":[],"stateMutability":"nonpayable"},{"type":"function","name":"beginDefaultAdminTransfer","inputs":[{"name":"newAdmin","type":"address","internalType":"address"}],"outputs":[],"stateMutability":"nonpayable"},{"type":"function","name":"cancelDefaultAdminTransfer","inputs":[],"outputs":[],"stateMutability":"nonpayable"},{"type":"function","name":"changeDefaultAdminDelay","inputs":[{"name":"newDelay","type":"uint48","internalType":"uint48"}],"outputs":[],"stateMutability":"nonpayable"},{"type":"function","name":"configureTokenValidity","inputs":[{"name":"tokenAddress","type":"address","internalType":"address"},{"name":"validity","type":"bool","internalType":"bool"}],"outputs":[],"stateMutability":"nonpayable"},{"type":"function","name":"defaultAdmin","inputs":[],"outputs":[{"name":"","type":"address","internalType":"address"}],"stateMutability":"view"},{"type":"function","name":"defaultAdminDelay","inputs":[],"outputs":[{"name":"","type":"uint48","internalType":"uint48"}],"stateMutability":"view"},{"type":"function","name":"defaultAdminDelayIncreaseWait","inputs":[],"outputs":[{"name":"","type":"uint48","internalType":"uint48"}],"stateMutability":"view"},{"type":"function","name":"deposit","inputs":[{"name":"orderId","type":"bytes32","internalType":"bytes32"}],"outputs":[],"stateMutability":"payable"},{"type":"function","name":"depositERC20","inputs":[{"name":"orderId","type":"bytes32","internalType":"bytes32"},{"name":"amount","type":"uint256","internalType":"uint256"},{"name":"tokenAddress","type":"address","internalType":"address"}],"outputs":[],"stateMutability":"nonpayable"},{"type":"function","name":"depositERC20WithPermit","inputs":[{"name":"orderId","type":"bytes32","internalType":"bytes32"},{"name":"amount","type":"uint256","internalType":"uint256"},{"name":"deadline","type":"uint256","internalType":"uint256"},{"name":"tokenAddress","type":"address","internalType":"address"},{"name":"v","type":"uint8","internalType":"uint8"},{"name":"r","type":"bytes32","internalType":"bytes32"},{"name":"s","type":"bytes32","internalType":"bytes32"}],"outputs":[],"stateMutability":"nonpayable"},{"type":"function","name":"getRoleAdmin","inputs":[{"name":"role","type":"bytes32","internalType":"bytes32"}],"outputs":[{"name":"","type":"bytes32","internalType":"bytes32"}],"stateMutability":"view"},{"type":"function","name":"grantRole","inputs":[{"name":"role","type":"bytes32","internalType":"bytes32"},{"name":"account","type":"address","internalType":"address"}],"outputs":[],"stateMutability":"nonpayable"},{"type":"function","name":"hasRole","inputs":[{"name":"role","type":"bytes32","internalType":"bytes32"},{"name":"account","type":"address","internalType":"address"}],"outputs":[{"name":"","type":"bool","internalType":"bool"}],"stateMutability":"view"},{"type":"function","name":"initialize","inputs":[{"name":"_owner","type":"address","internalType":"address"},{"name":"_delay","type":"uint48","internalType":"uint48"}],"outputs":[],"stateMutability":"nonpayable"},{"type":"function","name":"owner","inputs":[],"outputs":[{"name":"","type":"address","internalType":"address"}],"stateMutability":"view"},{"type":"function","name":"pause","inputs":[],"outputs":[],"stateMutability":"nonpayable"},{"type":"function","name":"paused","inputs":[],"outputs":[{"name":"","type":"bool","internalType":"bool"}],"stateMutability":"view"},{"type":"function","name":"pendingDefaultAdmin","inputs":[],"outputs":[{"name":"newAdmin","type":"address","internalType":"address"},{"name":"schedule","type":"uint48","internalType":"uint48"}],"stateMutability":"view"},{"type":"function","name":"pendingDefaultAdminDelay","inputs":[],"outputs":[{"name":"newDelay","type":"uint48","internalType":"uint48"},{"name":"schedule","type":"uint48","internalType":"uint48"}],"stateMutability":"view"},{"type":"function","name":"renounceRole","inputs":[{"name":"role","type":"bytes32","internalType":"bytes32"},{"name":"account","type":"address","internalType":"address"}],"outputs":[],"stateMutability":"nonpayable"},{"type":"function","name":"revokeRole","inputs":[{"name":"role","type":"bytes32","internalType":"bytes32"},{"name":"account","type":"address","internalType":"address"}],"outputs":[],"stateMutability":"nonpayable"},{"type":"function","name":"rollbackDefaultAdminDelay","inputs":[],"outputs":[],"stateMutability":"nonpayable"},{"type":"function","name":"supportsInterface","inputs":[{"name":"interfaceId","type":"bytes4","internalType":"bytes4"}],"outputs":[{"name":"","type":"bool","internalType":"bool"}],"stateMutability":"view"},{"type":"function","name":"unpause","inputs":[],"outputs":[],"stateMutability":"nonpayable"},{"type":"function","name":"updateWithdrawalAddress","inputs":[{"name":"_newWithdrawalAddress","type":"address","internalType":"address"}],"outputs":[],"stateMutability":"nonpayable"},{"type":"function","name":"validTokenAddresses","inputs":[{"name":"","type":"address","internalType":"address"}],"outputs":[{"name":"","type":"bool","internalType":"bool"}],"stateMutability":"view"},{"type":"function","name":"withdrawDeposit","inputs":[{"name":"amount","type":"uint256","internalType":"uint256"}],"outputs":[],"stateMutability":"nonpayable"},{"type":"function","name":"withdrawDepositERC20","inputs":[{"name":"amount","type":"uint256","internalType":"uint256"},{"name":"tokenAddress","type":"address","internalType":"address"}],"outputs":[],"stateMutability":"nonpayable"},{"type":"function","name":"withdrawalAddress","inputs":[],"outputs":[{"name":"","type":"address","internalType":"address"}],"stateMutability":"view"},{"type":"event","name":"DefaultAdminDelayChangeCanceled","inputs":[],"anonymous":false},{"type":"event","name":"DefaultAdminDelayChangeScheduled","inputs":[{"name":"newDelay","type":"uint48","indexed":false,"internalType":"uint48"},{"name":"effectSchedule","type":"uint48","indexed":false,"internalType":"uint48"}],"anonymous":false},{"type":"event","name":"DefaultAdminTransferCanceled","inputs":[],"anonymous":false},{"type":"event","name":"DefaultAdminTransferScheduled","inputs":[{"name":"newAdmin","type":"address","indexed":true,"internalType":"address"},{"name":"acceptSchedule","type":"uint48","indexed":false,"internalType":"uint48"}],"anonymous":false},{"type":"event","name":"Deposit","inputs":[{"name":"orderId","type":"bytes32","indexed":true,"internalType":"bytes32"},{"name":"tokenAddress","type":"address","indexed":true,"internalType":"address"},{"name":"amount","type":"uint256","indexed":false,"internalType":"uint256"},{"name":"from","type":"address","indexed":false,"internalType":"address"}],"anonymous":false},{"type":"event","name":"Initialized","inputs":[{"name":"version","type":"uint64","indexed":false,"internalType":"uint64"}],"anonymous":false},{"type":"event","name":"OperatorWithdrawal","inputs":[{"name":"operator","type":"address","indexed":false,"internalType":"address"},{"name":"amount","type":"uint256","indexed":false,"internalType":"uint256"},{"name":"tokenAddress","type":"address","indexed":true,"internalType":"address"},{"name":"to","type":"address","indexed":false,"internalType":"address"}],"anonymous":false},{"type":"event","name":"Paused","inputs":[{"name":"account","type":"address","indexed":false,"internalType":"address"}],"anonymous":false},{"type":"event","name":"RoleAdminChanged","inputs":[{"name":"role","type":"bytes32","indexed":true,"internalType":"bytes32"},{"name":"previousAdminRole","type":"bytes32","indexed":true,"internalType":"bytes32"},{"name":"newAdminRole","type":"bytes32","indexed":true,"internalType":"bytes32"}],"anonymous":false},{"type":"event","name":"RoleGranted","inputs":[{"name":"role","type":"bytes32","indexed":true,"internalType":"bytes32"},{"name":"account","type":"address","indexed":true,"internalType":"address"},{"name":"sender","type":"address","indexed":true,"internalType":"address"}],"anonymous":false},{"type":"event","name":"RoleRevoked","inputs":[{"name":"role","type":"bytes32","indexed":true,"internalType":"bytes32"},{"name":"account","type":"address","indexed":true,"internalType":"address"},{"name":"sender","type":"address","indexed":true,"internalType":"address"}],"anonymous":false},{"type":"event","name":"Unpaused","inputs":[{"name":"account","type":"address","indexed":false,"internalType":"address"}],"anonymous":false},{"type":"event","name":"WithdrawalAddressUpdate","inputs":[{"name":"withdrawalAddress","type":"address","indexed":false,"internalType":"address"}],"anonymous":false},{"type":"error","name":"AccessControlBadConfirmation","inputs":[]},{"type":"error","name":"AccessControlEnforcedDefaultAdminDelay","inputs":[{"name":"schedule","type":"uint48","internalType":"uint48"}]},{"type":"error","name":"AccessControlEnforcedDefaultAdminRules","inputs":[]},{"type":"error","name":"AccessControlInvalidDefaultAdmin","inputs":[{"name":"defaultAdmin","type":"address","internalType":"address"}]},{"type":"error","name":"AccessControlUnauthorizedAccount","inputs":[{"name":"account","type":"address","internalType":"address"},{"name":"neededRole","type":"bytes32","internalType":"bytes32"}]},{"type":"error","name":"ETHTransferFailed","inputs":[]},{"type":"error","name":"EnforcedPause","inputs":[]},{"type":"error","name":"ExpectedPause","inputs":[]},{"type":"error","name":"InsufficientDeposit","inputs":[]},{"type":"error","name":"InvalidAmount","inputs":[]},{"type":"error","name":"InvalidInitialization","inputs":[]},{"type":"error","name":"InvalidSignature","inputs":[]},{"type":"error","name":"InvalidTokenAddress","inputs":[]},{"type":"error","name":"NonceAlreadyUsed","inputs":[]},{"type":"error","name":"NotInitializing","inputs":[]},{"type":"error","name":"ReentrancyGuardReentrantCall","inputs":[]},{"type":"error","name":"SafeCastOverflowedUintDowncast","inputs":[{"name":"bits","type":"uint8","internalType":"uint8"},{"name":"value","type":"uint256","internalType":"uint256"}]},{"type":"error","name":"SafeERC20FailedOperation","inputs":[{"name":"token","type":"address","internalType":"address"}]}],"bytecode":{"object":"0x6080604052348015600e575f5ffd5b50612e808061001c5f395ff3fe6080604052600436106101e2575f3560e01c80638456cb5911610101578063cc8463c811610094578063d602b9fd11610063578063d602b9fd14610654578063f2bcd0221461066a578063f4b9786c14610694578063f5b541a6146106bc576101e2565b8063cc8463c8146105c1578063cefc1429146105eb578063cf6eefb714610601578063d547741f1461062c576101e2565b8063a1eda53c116100d0578063a1eda53c14610514578063a217fddf1461053f578063b214faa514610569578063b51004ec14610585576101e2565b80638456cb591461046e57806384ef8ffc146104845780638da5cb5b146104ae57806391d14854146104d8576101e2565b80633c8dcc6c116101795780635c975abb116101485780635c975abb146103cc5780635e72fc5d146103f6578063634e93da1461041e578063649a5ec714610446576101e2565b80633c8dcc6c1461033e5780633f30c652146103665780633f4ba83a1461038e5780635846b1e2146103a4576101e2565b80632c171af9116101b55780632c171af91461029e5780632f2ff15d146102c657806333289a46146102ee57806336568abe14610316576101e2565b806301ffc9a7146101e6578063022d63fb146102225780630aa6220b1461024c578063248a9ca314610262575b5f5ffd5b3480156101f1575f5ffd5b5061020c600480360381019061020791906125e3565b6106e6565b6040516102199190612628565b60405180910390f35b34801561022d575f5ffd5b5061023661075f565b6040516102439190612661565b60405180910390f35b348015610257575f5ffd5b50610260610769565b005b34801561026d575f5ffd5b50610288600480360381019061028391906126ad565b610780565b60405161029591906126e7565b60405180910390f35b3480156102a9575f5ffd5b506102c460048036038101906102bf919061278d565b6107aa565b005b3480156102d1575f5ffd5b506102ec60048036038101906102e791906127cb565b610998565b005b3480156102f9575f5ffd5b50610314600480360381019061030f9190612809565b6109e1565b005b348015610321575f5ffd5b5061033c600480360381019061033791906127cb565b610b4c565b005b348015610349575f5ffd5b50610364600480360381019061035f919061285e565b610c6b565b005b348015610371575f5ffd5b5061038c600480360381019061038791906128d2565b610cee565b005b348015610399575f5ffd5b506103a2610d88565b005b3480156103af575f5ffd5b506103ca60048036038101906103c5919061296f565b610d9f565b005b3480156103d7575f5ffd5b506103e0610dc7565b6040516103ed9190612628565b60405180910390f35b348015610401575f5ffd5b5061041c600480360381019061041791906129bf565b610de9565b005b348015610429575f5ffd5b50610444600480360381019061043f91906129bf565b610e8f565b005b348015610451575f5ffd5b5061046c60048036038101906104679190612a14565b610ea8565b005b348015610479575f5ffd5b50610482610ec1565b005b34801561048f575f5ffd5b50610498610ed8565b6040516104a59190612a4e565b60405180910390f35b3480156104b9575f5ffd5b506104c2610f0e565b6040516104cf9190612a4e565b60405180910390f35b3480156104e3575f5ffd5b506104fe60048036038101906104f991906127cb565b610f1c565b60405161050b9190612628565b60405180910390f35b34801561051f575f5ffd5b50610528610f8d565b604051610536929190612a67565b60405180910390f35b34801561054a575f5ffd5b50610553610ffb565b60405161056091906126e7565b60405180910390f35b610583600480360381019061057e91906126ad565b611001565b005b348015610590575f5ffd5b506105ab60048036038101906105a691906129bf565b61105d565b6040516105b89190612628565b60405180910390f35b3480156105cc575f5ffd5b506105d561107a565b6040516105e29190612661565b60405180910390f35b3480156105f6575f5ffd5b506105ff6110f8565b005b34801561060c575f5ffd5b5061061561118d565b604051610623929190612a8e565b60405180910390f35b348015610637575f5ffd5b50610652600480360381019061064d91906127cb565b6111dc565b005b34801561065f575f5ffd5b50610668611225565b005b348015610675575f5ffd5b5061067e61123c565b60405161068b9190612a4e565b60405180910390f35b34801561069f575f5ffd5b506106ba60048036038101906106b59190612ab5565b611260565b005b3480156106c7575f5ffd5b506106d0611432565b6040516106dd91906126e7565b60405180910390f35b5f7f31498786000000000000000000000000000000000000000000000000000000007bffffffffffffffffffffffffffffffffffffffffffffffffffffffff1916827bffffffffffffffffffffffffffffffffffffffffffffffffffffffff19161480610758575061075782611456565b5b9050919050565b5f62069780905090565b5f5f1b610775816114cf565b61077d6114e3565b50565b5f5f61078a6114ef565b9050805f015f8481526020019081526020015f2060010154915050919050565b7f97667070c54ef182b0f5858b034beac1b6f3089aa2d3188bb1e8929f4fa9b9296107d4816114cf565b60015f8373ffffffffffffffffffffffffffffffffffffffff1673ffffffffffffffffffffffffffffffffffffffff1681526020019081526020015f205f9054906101000a900460ff16610854576040517f1eb00b0600000000000000000000000000000000000000000000000000000000815260040160405180910390fd5b5f83036108d6578173ffffffffffffffffffffffffffffffffffffffff166370a08231306040518263ffffffff1660e01b81526004016108949190612a4e565b602060405180830381865afa1580156108af573d5f5f3e3d5ffd5b505050506040513d601f19601f820116820180604052508101906108d39190612b07565b92505b8173ffffffffffffffffffffffffffffffffffffffff167f4946be4b7da3efc06da78a475be1f44a917ce371e294490b0db622341dff304f33855f5f9054906101000a900473ffffffffffffffffffffffffffffffffffffffff1660405161094093929190612b41565b60405180910390a26109935f5f9054906101000a900473ffffffffffffffffffffffffffffffffffffffff16848473ffffffffffffffffffffffffffffffffffffffff166115169092919063ffffffff16565b505050565b5f5f1b82036109d3576040517f3fc3c27a00000000000000000000000000000000000000000000000000000000815260040160405180910390fd5b6109dd8282611595565b5050565b7f97667070c54ef182b0f5858b034beac1b6f3089aa2d3188bb1e8929f4fa9b929610a0b816114cf565b5f8203610a16574791505b5f5f5f9054906101000a900473ffffffffffffffffffffffffffffffffffffffff1673ffffffffffffffffffffffffffffffffffffffff1683604051610a5b90612ba3565b5f6040518083038185875af1925050503d805f8114610a95576040519150601f19603f3d011682016040523d82523d5f602084013e610a9a565b606091505b5050905080610ad5576040517fb12d13eb00000000000000000000000000000000000000000000000000000000815260040160405180910390fd5b5f73ffffffffffffffffffffffffffffffffffffffff167f4946be4b7da3efc06da78a475be1f44a917ce371e294490b0db622341dff304f33855f5f9054906101000a900473ffffffffffffffffffffffffffffffffffffffff16604051610b3f93929190612b41565b60405180910390a2505050565b5f610b556115b7565b90505f5f1b83148015610b9a5750610b6b610ed8565b73ffffffffffffffffffffffffffffffffffffffff168273ffffffffffffffffffffffffffffffffffffffff16145b15610c5c575f5f610ba961118d565b915091505f73ffffffffffffffffffffffffffffffffffffffff168273ffffffffffffffffffffffffffffffffffffffff16141580610bee5750610bec816115de565b155b80610bff5750610bfd816115f2565b155b15610c4157806040517f19ca5ebb000000000000000000000000000000000000000000000000000000008152600401610c389190612661565b60405180910390fd5b825f0160146101000a81549065ffffffffffff021916905550505b610c668383611605565b505050565b7f97667070c54ef182b0f5858b034beac1b6f3089aa2d3188bb1e8929f4fa9b929610c95816114cf565b8160015f8573ffffffffffffffffffffffffffffffffffffffff1673ffffffffffffffffffffffffffffffffffffffff1681526020019081526020015f205f6101000a81548160ff021916908315150217905550505050565b610cf6611680565b610cfe6116c1565b8373ffffffffffffffffffffffffffffffffffffffff1663d505accf333089898888886040518863ffffffff1660e01b8152600401610d439796959493929190612bc6565b5f604051808303815f87803b158015610d5a575f5ffd5b505af1925050508015610d6b575060015b50610d77878786611740565b610d7f61187c565b50505050505050565b5f5f1b610d94816114cf565b610d9c6118bb565b50565b610da7611680565b610daf6116c1565b610dba838383611740565b610dc261187c565b505050565b5f5f610dd1611929565b9050805f015f9054906101000a900460ff1691505090565b5f5f1b610df5816114cf565b815f5f6101000a81548173ffffffffffffffffffffffffffffffffffffffff021916908373ffffffffffffffffffffffffffffffffffffffff1602179055507fa4299d127dd4ea13768ce695c6042ffb952b37a453241d76ab2044cf0fd4163f5f5f9054906101000a900473ffffffffffffffffffffffffffffffffffffffff16604051610e839190612a4e565b60405180910390a15050565b5f5f1b610e9b816114cf565b610ea482611950565b5050565b5f5f1b610eb4816114cf565b610ebd826119ca565b5050565b5f5f1b610ecd816114cf565b610ed5611a30565b50565b5f5f610ee26115b7565b9050806001015f9054906101000a900473ffffffffffffffffffffffffffffffffffffffff1691505090565b5f610f17610ed8565b905090565b5f5f610f266114ef565b9050805f015f8581526020019081526020015f205f015f8473ffffffffffffffffffffffffffffffffffffffff1673ffffffffffffffffffffffffffffffffffffffff1681526020019081526020015f205f9054906101000a900460ff1691505092915050565b5f5f5f610f986115b7565b905080600101601a9054906101000a900465ffffffffffff169150610fbc826115de565b8015610fce5750610fcc826115f2565b155b610fd9575f5f610ff2565b8060010160149054906101000a900465ffffffffffff16825b92509250509091565b5f5f1b81565b611009611680565b5f73ffffffffffffffffffffffffffffffffffffffff16817fb25817d51bf1faf024f38337136f66fa778e7da5a20888ec58560d655ed824473433604051611052929190612c33565b60405180910390a350565b6001602052805f5260405f205f915054906101000a900460ff1681565b5f5f6110846115b7565b90505f81600101601a9054906101000a900465ffffffffffff1690506110a9816115de565b80156110ba57506110b9816115f2565b5b6110d957815f01601a9054906101000a900465ffffffffffff166110f1565b8160010160149054906101000a900465ffffffffffff165b9250505090565b5f61110161118d565b5090508073ffffffffffffffffffffffffffffffffffffffff16611123611a9f565b73ffffffffffffffffffffffffffffffffffffffff161461118257611146611a9f565b6040517fc22c80220000000000000000000000000000000000000000000000000000000081526004016111799190612a4e565b60405180910390fd5b61118a611aa6565b50565b5f5f5f6111986115b7565b9050805f015f9054906101000a900473ffffffffffffffffffffffffffffffffffffffff16815f0160149054906101000a900465ffffffffffff1692509250509091565b5f5f1b8203611217576040517f3fc3c27a00000000000000000000000000000000000000000000000000000000815260040160405180910390fd5b6112218282611b7f565b5050565b5f5f1b611231816114cf565b611239611ba1565b50565b5f5f9054906101000a900473ffffffffffffffffffffffffffffffffffffffff1681565b5f611269611bad565b90505f815f0160089054906101000a900460ff161590505f825f015f9054906101000a900467ffffffffffffffff1690505f5f8267ffffffffffffffff161480156112b15750825b90505f60018367ffffffffffffffff161480156112e457505f3073ffffffffffffffffffffffffffffffffffffffff163b145b9050811580156112f2575080155b15611329576040517ff92ee8a900000000000000000000000000000000000000000000000000000000815260040160405180910390fd5b6001855f015f6101000a81548167ffffffffffffffff021916908367ffffffffffffffff1602179055508315611376576001855f0160086101000a81548160ff0219169083151502179055505b6113808688611bd4565b611388611bea565b611390611bf4565b865f5f6101000a81548173ffffffffffffffffffffffffffffffffffffffff021916908373ffffffffffffffffffffffffffffffffffffffff1602179055508315611429575f855f0160086101000a81548160ff0219169083151502179055507fc7f505b2f371ae2175ee4913f4499e1f2633a7b5936321eed1cdaeb6115181d260016040516114209190612caf565b60405180910390a15b50505050505050565b7f97667070c54ef182b0f5858b034beac1b6f3089aa2d3188bb1e8929f4fa9b92981565b5f7f7965db0b000000000000000000000000000000000000000000000000000000007bffffffffffffffffffffffffffffffffffffffffffffffffffffffff1916827bffffffffffffffffffffffffffffffffffffffffffffffffffffffff191614806114c857506114c782611bfe565b5b9050919050565b6114e0816114db611a9f565b611c67565b50565b6114ed5f5f611cb8565b565b5f7f02dd7bc7dec4dceedda775e58dd541e08a116c6c53815c0bd028192f7b626800905090565b611590838473ffffffffffffffffffffffffffffffffffffffff1663a9059cbb8585604051602401611549929190612cc8565b604051602081830303815290604052915060e01b6020820180517bffffffffffffffffffffffffffffffffffffffffffffffffffffffff8381831617835250505050611dbc565b505050565b61159e82610780565b6115a7816114cf565b6115b18383611e57565b50505050565b5f7feef3dac4538c82c8ace4063ab0acd2d15cdb5883aa1dff7c2673abb3d8698400905090565b5f5f8265ffffffffffff1614159050919050565b5f428265ffffffffffff16109050919050565b61160d611a9f565b73ffffffffffffffffffffffffffffffffffffffff168173ffffffffffffffffffffffffffffffffffffffff1614611671576040517f6697b23200000000000000000000000000000000000000000000000000000000815260040160405180910390fd5b61167b8282611f2e565b505050565b611688610dc7565b156116bf576040517fd93c066500000000000000000000000000000000000000000000000000000000815260040160405180910390fd5b565b6116c9611fbc565b15611700576040517f3ee5aeb500000000000000000000000000000000000000000000000000000000815260040160405180910390fd5b61173e60016117307f9b779b17422d0df92223018b32b4d1fa46e071723d6817e2486d003becc55f005f1b611ff5565b611ffe90919063ffffffff16565b565b5f8203611779576040517f2c5211c600000000000000000000000000000000000000000000000000000000815260040160405180910390fd5b60015f8273ffffffffffffffffffffffffffffffffffffffff1673ffffffffffffffffffffffffffffffffffffffff1681526020019081526020015f205f9054906101000a900460ff166117f9576040517f1eb00b0600000000000000000000000000000000000000000000000000000000815260040160405180910390fd5b8073ffffffffffffffffffffffffffffffffffffffff16837fb25817d51bf1faf024f38337136f66fa778e7da5a20888ec58560d655ed824478433604051611842929190612c33565b60405180910390a36118773330848473ffffffffffffffffffffffffffffffffffffffff16612005909392919063ffffffff16565b505050565b6118b95f6118ab7f9b779b17422d0df92223018b32b4d1fa46e071723d6817e2486d003becc55f005f1b611ff5565b611ffe90919063ffffffff16565b565b6118c3612087565b5f6118cc611929565b90505f815f015f6101000a81548160ff0219169083151502179055507f5db9ee0a495bf2e6ff9c91a7834c1ba4fdd244a5e8aa4e537bd38aeae4b073aa611911611a9f565b60405161191e9190612a4e565b60405180910390a150565b5f7fcd5ed15c6e187e77e9aee88184c21f4f2182ab5827cb3b7e07fbedcd63f03300905090565b5f61195961107a565b611962426120c7565b61196c9190612d1c565b90506119788282612120565b8173ffffffffffffffffffffffffffffffffffffffff167f3377dc44241e779dd06afab5b788a35ca5f3b778836e2990bdb26a2a4b2e5ed6826040516119be9190612661565b60405180910390a25050565b5f6119d4826121df565b6119dd426120c7565b6119e79190612d1c565b90506119f38282611cb8565b7ff1038c18cf84a56e432fdbfaf746924b7ea511dfe03a6506a0ceba4888788d9b8282604051611a24929190612a67565b60405180910390a15050565b611a38611680565b5f611a41611929565b90506001815f015f6101000a81548160ff0219169083151502179055507f62e78cea01bee320cd4e420270b5ea74000d11b0c9f74754ebdbfc544b05a258611a87611a9f565b604051611a949190612a4e565b60405180910390a150565b5f33905090565b5f611aaf6115b7565b90505f5f611abb61118d565b91509150611ac8816115de565b1580611ada5750611ad8816115f2565b155b15611b1c57806040517f19ca5ebb000000000000000000000000000000000000000000000000000000008152600401611b139190612661565b60405180910390fd5b611b2f5f5f1b611b2a610ed8565b611f2e565b50611b3c5f5f1b83611e57565b50825f015f6101000a81549073ffffffffffffffffffffffffffffffffffffffff0219169055825f0160146101000a81549065ffffffffffff0219169055505050565b611b8882610780565b611b91816114cf565b611b9b8383611f2e565b50505050565b611bab5f5f612120565b565b5f7ff0c57e16840df040f15088dc2f81fe391c3923bec73e23a9662efc9c229c6a00905090565b611bdc61223d565b611be6828261227d565b5050565b611bf261223d565b565b611bfc61223d565b565b5f7f01ffc9a7000000000000000000000000000000000000000000000000000000007bffffffffffffffffffffffffffffffffffffffffffffffffffffffff1916827bffffffffffffffffffffffffffffffffffffffffffffffffffffffff1916149050919050565b611c718282610f1c565b611cb45780826040517fe2517d3f000000000000000000000000000000000000000000000000000000008152600401611cab929190612d55565b60405180910390fd5b5050565b5f611cc16115b7565b90505f81600101601a9054906101000a900465ffffffffffff169050611ce6816115de565b15611d6857611cf4816115f2565b15611d3a578160010160149054906101000a900465ffffffffffff16825f01601a6101000a81548165ffffffffffff021916908365ffffffffffff160217905550611d67565b7f2b1fa2edafe6f7b9e97c1a9e0c3660e645beb2dcaa2d45bdbf9beaf5472e1ec560405160405180910390a15b5b838260010160146101000a81548165ffffffffffff021916908365ffffffffffff1602179055508282600101601a6101000a81548165ffffffffffff021916908365ffffffffffff16021790555050505050565b5f5f60205f8451602086015f885af180611ddb576040513d5f823e3d81fd5b3d92505f519150505f8214611df4576001811415611e0f565b5f8473ffffffffffffffffffffffffffffffffffffffff163b145b15611e5157836040517f5274afe7000000000000000000000000000000000000000000000000000000008152600401611e489190612a4e565b60405180910390fd5b50505050565b5f5f611e616115b7565b90505f5f1b8403611f1b575f73ffffffffffffffffffffffffffffffffffffffff16611e8b610ed8565b73ffffffffffffffffffffffffffffffffffffffff1614611ed8576040517f3fc3c27a00000000000000000000000000000000000000000000000000000000815260040160405180910390fd5b82816001015f6101000a81548173ffffffffffffffffffffffffffffffffffffffff021916908373ffffffffffffffffffffffffffffffffffffffff1602179055505b611f258484612338565b91505092915050565b5f5f611f386115b7565b90505f5f1b84148015611f7d5750611f4e610ed8565b73ffffffffffffffffffffffffffffffffffffffff168373ffffffffffffffffffffffffffffffffffffffff16145b15611fa957806001015f6101000a81549073ffffffffffffffffffffffffffffffffffffffff02191690555b611fb38484612430565b91505092915050565b5f611ff0611feb7f9b779b17422d0df92223018b32b4d1fa46e071723d6817e2486d003becc55f005f1b611ff5565b612528565b905090565b5f819050919050565b80825d5050565b612081848573ffffffffffffffffffffffffffffffffffffffff166323b872dd86868660405160240161203a93929190612d7c565b604051602081830303815290604052915060e01b6020820180517bffffffffffffffffffffffffffffffffffffffffffffffffffffffff8381831617835250505050611dbc565b50505050565b61208f610dc7565b6120c5576040517f8dfc202b00000000000000000000000000000000000000000000000000000000815260040160405180910390fd5b565b5f65ffffffffffff8016821115612118576030826040517f6dfcc65000000000000000000000000000000000000000000000000000000000815260040161210f929190612dea565b60405180910390fd5b819050919050565b5f6121296115b7565b90505f61213461118d565b91505083825f015f6101000a81548173ffffffffffffffffffffffffffffffffffffffff021916908373ffffffffffffffffffffffffffffffffffffffff16021790555082825f0160146101000a81548165ffffffffffff021916908365ffffffffffff1602179055506121a7816115de565b156121d9577f8886ebfc4259abdbc16601dd8fb5678e54878f47b3c34836cfc51154a960510960405160405180910390a15b50505050565b5f5f6121e961107a565b90508065ffffffffffff168365ffffffffffff161161221357828161220e9190612e11565b612235565b6122348365ffffffffffff1661222761075f565b65ffffffffffff16612532565b5b915050919050565b612245612548565b61227b576040517fd7e6bcf800000000000000000000000000000000000000000000000000000000815260040160405180910390fd5b565b61228561223d565b5f61228e6115b7565b90505f73ffffffffffffffffffffffffffffffffffffffff168273ffffffffffffffffffffffffffffffffffffffff1603612300575f6040517fc22c80220000000000000000000000000000000000000000000000000000000081526004016122f79190612a4e565b60405180910390fd5b82815f01601a6101000a81548165ffffffffffff021916908365ffffffffffff1602179055506123325f5f1b83611e57565b50505050565b5f5f6123426114ef565b905061234e8484610f1c565b612425576001815f015f8681526020019081526020015f205f015f8573ffffffffffffffffffffffffffffffffffffffff1673ffffffffffffffffffffffffffffffffffffffff1681526020019081526020015f205f6101000a81548160ff0219169083151502179055506123c1611a9f565b73ffffffffffffffffffffffffffffffffffffffff168373ffffffffffffffffffffffffffffffffffffffff16857f2f8788117e7eff1d82e926ec794901d17c78024a50270940304540a733656f0d60405160405180910390a4600191505061242a565b5f9150505b92915050565b5f5f61243a6114ef565b90506124468484610f1c565b1561251d575f815f015f8681526020019081526020015f205f015f8573ffffffffffffffffffffffffffffffffffffffff1673ffffffffffffffffffffffffffffffffffffffff1681526020019081526020015f205f6101000a81548160ff0219169083151502179055506124b9611a9f565b73ffffffffffffffffffffffffffffffffffffffff168373ffffffffffffffffffffffffffffffffffffffff16857ff6391f5c32d9c69d2a47ea670b442974b53935d1edc7fd64eb21e047a839171b60405160405180910390a46001915050612522565b5f9150505b92915050565b5f815c9050919050565b5f6125408284108484612566565b905092915050565b5f612551611bad565b5f0160089054906101000a900460ff16905090565b5f6125708461257f565b82841802821890509392505050565b5f8115159050919050565b5f5ffd5b5f7fffffffff0000000000000000000000000000000000000000000000000000000082169050919050565b6125c28161258e565b81146125cc575f5ffd5b50565b5f813590506125dd816125b9565b92915050565b5f602082840312156125f8576125f761258a565b5b5f612605848285016125cf565b91505092915050565b5f8115159050919050565b6126228161260e565b82525050565b5f60208201905061263b5f830184612619565b92915050565b5f65ffffffffffff82169050919050565b61265b81612641565b82525050565b5f6020820190506126745f830184612652565b92915050565b5f819050919050565b61268c8161267a565b8114612696575f5ffd5b50565b5f813590506126a781612683565b92915050565b5f602082840312156126c2576126c161258a565b5b5f6126cf84828501612699565b91505092915050565b6126e18161267a565b82525050565b5f6020820190506126fa5f8301846126d8565b92915050565b5f819050919050565b61271281612700565b811461271c575f5ffd5b50565b5f8135905061272d81612709565b92915050565b5f73ffffffffffffffffffffffffffffffffffffffff82169050919050565b5f61275c82612733565b9050919050565b61276c81612752565b8114612776575f5ffd5b50565b5f8135905061278781612763565b92915050565b5f5f604083850312156127a3576127a261258a565b5b5f6127b08582860161271f565b92505060206127c185828601612779565b9150509250929050565b5f5f604083850312156127e1576127e061258a565b5b5f6127ee85828601612699565b92505060206127ff85828601612779565b9150509250929050565b5f6020828403121561281e5761281d61258a565b5b5f61282b8482850161271f565b91505092915050565b61283d8161260e565b8114612847575f5ffd5b50565b5f8135905061285881612834565b92915050565b5f5f604083850312156128745761287361258a565b5b5f61288185828601612779565b92505060206128928582860161284a565b9150509250929050565b5f60ff82169050919050565b6128b18161289c565b81146128bb575f5ffd5b50565b5f813590506128cc816128a8565b92915050565b5f5f5f5f5f5f5f60e0888a0312156128ed576128ec61258a565b5b5f6128fa8a828b01612699565b975050602061290b8a828b0161271f565b965050604061291c8a828b0161271f565b955050606061292d8a828b01612779565b945050608061293e8a828b016128be565b93505060a061294f8a828b01612699565b92505060c06129608a828b01612699565b91505092959891949750929550565b5f5f5f606084860312156129865761298561258a565b5b5f61299386828701612699565b93505060206129a48682870161271f565b92505060406129b586828701612779565b9150509250925092565b5f602082840312156129d4576129d361258a565b5b5f6129e184828501612779565b91505092915050565b6129f381612641565b81146129fd575f5ffd5b50565b5f81359050612a0e816129ea565b92915050565b5f60208284031215612a2957612a2861258a565b5b5f612a3684828501612a00565b91505092915050565b612a4881612752565b82525050565b5f602082019050612a615f830184612a3f565b92915050565b5f604082019050612a7a5f830185612652565b612a876020830184612652565b9392505050565b5f604082019050612aa15f830185612a3f565b612aae6020830184612652565b9392505050565b5f5f60408385031215612acb57612aca61258a565b5b5f612ad885828601612779565b9250506020612ae985828601612a00565b9150509250929050565b5f81519050612b0181612709565b92915050565b5f60208284031215612b1c57612b1b61258a565b5b5f612b2984828501612af3565b91505092915050565b612b3b81612700565b82525050565b5f606082019050612b545f830186612a3f565b612b616020830185612b32565b612b6e6040830184612a3f565b949350505050565b5f81905092915050565b50565b5f612b8e5f83612b76565b9150612b9982612b80565b5f82019050919050565b5f612bad82612b83565b9150819050919050565b612bc08161289c565b82525050565b5f60e082019050612bd95f83018a612a3f565b612be66020830189612a3f565b612bf36040830188612b32565b612c006060830187612b32565b612c0d6080830186612bb7565b612c1a60a08301856126d8565b612c2760c08301846126d8565b98975050505050505050565b5f604082019050612c465f830185612b32565b612c536020830184612a3f565b9392505050565b5f819050919050565b5f67ffffffffffffffff82169050919050565b5f819050919050565b5f612c99612c94612c8f84612c5a565b612c76565b612c63565b9050919050565b612ca981612c7f565b82525050565b5f602082019050612cc25f830184612ca0565b92915050565b5f604082019050612cdb5f830185612a3f565b612ce86020830184612b32565b9392505050565b7f4e487b71000000000000000000000000000000000000000000000000000000005f52601160045260245ffd5b5f612d2682612641565b9150612d3183612641565b9250828201905065ffffffffffff811115612d4f57612d4e612cef565b5b92915050565b5f604082019050612d685f830185612a3f565b612d7560208301846126d8565b9392505050565b5f606082019050612d8f5f830186612a3f565b612d9c6020830185612a3f565b612da96040830184612b32565b949350505050565b5f819050919050565b5f612dd4612dcf612dca84612db1565b612c76565b61289c565b9050919050565b612de481612dba565b82525050565b5f604082019050612dfd5f830185612ddb565b612e0a6020830184612b32565b9392505050565b5f612e1b82612641565b9150612e2683612641565b9250828203905065ffffffffffff811115612e4457612e43612cef565b5b9291505056fea26469706673582212208993cf9bc0d581ab5294857448e5ee19258beab4eb0382068d1868232c6fe0f864736f6c634300081c0033","linkReferences":{}},"methodIdentifiers":{"DEFAULT_ADMIN_ROLE()":"a217fddf","OPERATOR_ROLE()":"f5b541a6","acceptDefaultAdminTransfer()":"cefc1429","beginDefaultAdminTransfer(address)":"634e93da","cancelDefaultAdminTransfer()":"d602b9fd","changeDefaultAdminDelay(uint48)":"649a5ec7","configureTokenValidity(address,bool)":"3c8dcc6c","defaultAdmin()":"84ef8ffc","defaultAdminDelay()":"cc8463c8","defaultAdminDelayIncreaseWait()":"022d63fb","deposit(bytes32)":"b214faa5","depositERC20(bytes32,uint256,address)":"5846b1e2","depositERC20WithPermit(bytes32,uint256,uint256,address,uint8,bytes32,bytes32)":"3f30c652","getRoleAdmin(bytes32)":"248a9ca3","grantRole(bytes32,address)":"2f2ff15d","hasRole(bytes32,address)":"91d14854","initialize(address,uint48)":"f4b9786c","owner()":"8da5cb5b","pause()":"8456cb59","paused()":"5c975abb","pendingDefaultAdmin()":"cf6eefb7","pendingDefaultAdminDelay()":"a1eda53c","renounceRole(bytes32,address)":"36568abe","revokeRole(bytes32,address)":"d547741f","rollbackDefaultAdminDelay()":"0aa6220b","supportsInterface(bytes4)":"01ffc9a7","unpause()":"3f4ba83a","updateWithdrawalAddress(address)":"5e72fc5d","validTokenAddresses(address)":"b51004ec","withdrawDeposit(uint256)":"33289a46","withdrawDepositERC20(uint256,address)":"2c171af9","withdrawalAddress()":"f2bcd022"},"storageLayout":{"storage":[{"astId":50734,"contract":"src/TurboDAResolver.sol:TurboDAResolver","label":"withdrawalAddress","offset":0,"slot":"0","type":"t_address"},{"astId":50739,"contract":"src/TurboDAResolver.sol:TurboDAResolver","label":"validTokenAddresses","offset":0,"slot":"1","type":"t_mapping(t_address,t_bool)"}],"types":{"t_address":{"encoding":"inplace","label":"address","numberOfBytes":"20"},"t_bool":{"encoding":"inplace","label":"bool","numberOfBytes":"1"},"t_mapping(t_address,t_bool)":{"encoding":"mapping","key":"t_address","label":"mapping(address => bool)","numberOfBytes":"32","value":"t_bool"}}},"id":73}